:0E0000000C945D020C9400000C9400000C9413
:10000E0000000C9400000C9400000C9400000C9462
:10001E0000000C9410050C94FC040C9400000C943D
:10002E00C6040C9400000C9400000C9400000C9478
:10003E0000000C9400000C9400000C9400000C9432
:10004E0000000C9400000000000000000000000002
:10005E00000000000000FE00000000000000000094
:10006E00000000003030000002060C183060C08026
:10007E000000007CC6CEDEF6E6C6C67C0000183850
:10008E007818181818187E00007CC6060C183060F8
:10009E00C6FE00007CC606063C0606C67C00000CAA
:1000AE001C3C6CCCFE0C0C1E0000FEC0C0C0FC063E
:1000BE0006C67C00003860C0C0FCC6C6C67C000008
:1000CE00FEC6060C183030303000007CC6C6C67C2A
:1000DE00C6C6C67C00007CC6C6C67E06060C780068
:1000EE000000181800000018180000386C6C38005A
:1000FE00000000000000001E3666C6C6FEC6C6C65C
:10010E000000FE62607C66666666FC0000FC666649
:10011E00667C666666FC0000FE626260606060601F
:10012E00F000001E36666666666666FFC300FE66F3
:10013E00626878686266FE0000D6D654547C54D647
:10014E00D6D600007CC606063C0606C67C0000C657
:10015E00C6CEDEF6E6C6C6C60038C6C6CEDEF6E6A5
:10016E00C6C6C60000E6666C6C786C6C66E600006F
:10017E001E3666C6C6C6C6C6C60000C6EEFEFED68D
:10018E00C6C6C6C60000C6C6C6C6FEC6C6C6C6001B
:10019E00007CC6C6C6C6C6C6C67C0000FEC6C6C69F
:1001AE00C6C6C6C6C60000FC6666667C606060F0A9
:1001BE0000003C66C2C0C0C0C2663C00007E5A1839
:1001CE0018181818183C0000C6C6C6C6C67E06C645
:1001DE007C003C187EDBDBDBDB7E183C0000C6C6F9
:1001EE006C7C387C6CC6C60000CCCCCCCCCCCCCCD9
:1001FE00CCFE0600C6C6C6C6C67E0606060000DBD8
:10020E00DBDBDBDBDBDBDBFF0000DBDBDBDBDBDBC2
:10021E00DBDBFF0300F8B0303C363636367C0000B0
:10022E00C3C3C3F3DBDBDBDBF30000F060607C6693
:10023E00666666FC00007CC606263E2606C67C0068
:10024E0000CEDBDBDBFBDBDBDBCE00003F66666676
:10025E003E3E6666E7008110F18103008210F121B7
:10026E0001A58410F1180000009D8310F114000008
:10027E0098008210F13E01C28210F12103A7000006
:10028E00121A8E21E0FFFFFF0000000000000000A8
:10029E0000002020CFCEC4CACBDED7C5CDC8C52026
:1002AE002000CDC5D220D1C2DFC7C820D120DDC1EC
:1002BE00D300D2C5CCCFC5D0C0D2D3D0C000C4D00D
:1002CE00CED1D1C5CBDC00CEC1CED0CED2DB00D1CB
:1002DE00CACED0CED1D2DC00CDC0CFD0DFC6C5CDF8
:1002EE00C8C500C2CFD0DBD1CA00CCC3CDCEC2C5EB
:1002FE00CDCDDBC920D0C0D1D5CEC4002D2564B064
:10030E000025642500256400252E31660031392E26
:10031E003900CB2F31303000C4CCD0C200C4C0D293
:10032E00D7C8CA20CAC8D1CBCED0CEC4C000252EC5
:10033E00346620C200CACECBC8D7C5D1D2C2CE2019
:10034E00CED8C8C1CECA3A00D1C1D0CED100D025A8
:10035E003032782530327800D0C0C7C3CECD2030B1
:10036E002D31303020CACC2FD700302E3000CED8D1
:10037E00C8C1CAC800CFC0D0C0CCC5D2D0DB0030F7
:10038E002D31303000C0D6CF00002D4E414E000032
:10039E0001002D4E414E00494E4600000100020064
:1003AE008C02020071028E020200730290020200A1
:1003BE007502920202007702940210006001A00200
:1003CE0010007001B0020C008001C00209008C0107
:1003DE00CC0208009501D50209009D01DD020B003B
:1003EE00A601E6020700B101F1021200B801F802FF
:1003FE000200CA01AE020200CC01AE020200CE0122
:10040E00AE020200D001AE020200D201AE02020024
:10041E00D401AE020200D601AE020300D801AD0235
:10042E000200DB01AE020500DD011B030600E20146
:10043E0020030200E801AE020500EA011B030500DD
:10044E00EF0126031100F4012B03130005024303F1
:10045E0006001802560306001E025603120024025E
:10046E00660304003602780309003A02DD02060034
:10047E004302560302004902AE0206004B02560327
:10048E00070051027C030A00580283030600620231
:10049E008D0305006802730304006D0293030A00C6
:1004AE000400960201006D039E030000F894EE27EF
:1004BE00ECBBF1E0FBBFEBBFE5BFF8E1F1BDE1BD89
:1004CE008DE0A2E0BB27ED938A95E9F780E094E0FA
:1004DE00A0E6ED930197E9F7EAEAF3E085919591AD
:1004EE00009761F0A591B59105901590BF01F001AF
:1004FE0005900D920197E1F7FB01F0CFEFE5EDBF0F
:10050E00E4E0EEBFC0E6D1E00C948305C498C29A35
:10051E00E981F070EFB9779BFECF8BE18A95F1F709
:10052E00E881EFB9779BFECF8BE18A95F1F711C089
:10053E00C498C298E981F070EFB9779BFECF80E145
:10054E008A95F1F7E881EFB9779BFECF80E18A9526
:10055E00F1F7C49A229608950E941B170E94DD108F
:10056E00EA85FB850E94E910EE81FF81E050F74F8E
:10057E000E94EF10EC85FD85E050F64F0E94EF10C3
:10058E00E885F985E050F54F0E94EF10AC85BD85EA
:10059E00E885F985EA1BFB0B31960F01AA85BB8511
:1005AE00EE81FF81EA1BFB0B3196D0010E945F1694
:1005BE009F0100E010E00217130738F4EC81FD8173
:1005CE000E94F3100F5F1F4FF6CF0E9422172E9638
:1005DE0008950E9419170E94F710A5EAB0E00E9434
:1005EE00E516EA1BEB870E94DD10EA85F0E00E941B
:1005FE00E9100E94F710E050F64F0E94EF10EA85C6
:10060E00F0E0E050F74FBF01EE81ABE00E94FA1030
:10061E000E94F710E050F54FBF01EE81A8E00E9456
:10062E00FA101BE0113010F40C948D0350E0EE81A3
:10063E005E1710F00C948B03A985A03231F4E12FD4
:10064E000E940411EC5AFF4F23C0A985AD3210F061
:10065E00AB3308F004C0E985F0E0BC970DC0A98566
:10066E00A03B19F469EF70E00EC0A985A03C88F09C
:10067E00E985F0E0E05BF040ABE0B0E00E94571699
:10068E00EC5AFF4FBF01E12F0E940411E60FF71F36
:10069E00049121E030E03830A8F5E22FE023C1F0DC
:1006AE000E940C11AE81A23011F40E940C11AE8189
:1006BE00A33021F40E940C110E940C11AE81A430C3
:1006CE0031F40E940C110E940C110E940C1117C0E3
:1006DE000E940F11AE81A23011F40E940F11AE8153
:1006EE00A33021F40E940F110E940F11AE81A4308D
:1006FE0031F40E940F110E940F110E940F11220F50
:10070E003F5FC9CF5F5F93CF11508CCF0E942017F0
:10071E002C9608951A9310E0EC81FD810E9413111E
:10072E00A12F0E941711E0F4E12FEE0FEE0FEE0F46
:10073E00A981EA02F001AF81EA0FEA93EF81EA9311
:10074E00AE81BF81EE27A10FBE1FEC91EA93ED8122
:10075E00FE81FA93EA93EE81EA933BDF1F5FDCCFD3
:10076E00188128960895C3980E941B11C39AEDEF25
:10077E00FDEF0E94EF10EDEFFDEF0E94EF100E94D3
:10078E002111E4E0FEEE0E94EF10E4E0FBE10E9496
:10079E00EF10EEEFFEEF0E94EF10EEEFFEEF0E9475
:1007AE00EF100E942411E4E0FAE40E94EF10EFE350
:1007BE00FFE70E94EF10E4E0FEEE0E94EF10E6E08D
:1007CE00F3E40E94EF100E9427110E942411E3E827
:1007DE00F9E00E94EF10E0E0F8E00E94EF10EFEA7F
:1007EE00FBE00E94EF10E0E0FAE00E94EF10E0E084
:1007FE00F5E00E94EF10E0E0F6E00E94EF10E0E07E
:10080E00F7E00E94EF100E942111ECE0FEEE0E9434
:10081E00EF100E942411E0E8F0E00E94EF100E9419
:10082E002D11E2E0F9E40E94EF100E9421110E94C6
:10083E003011E1E8F1EE0E94EF10E2E0F2EE0E94DC
:10084E00EF10E6E7F2EE0E94EF10E3E8F1EE0E9401
:10085E00EF10E1E0F0E80E94EF100E94DD10E0E002
:10086E00F6E00E94EF10E0E0F7E085C01A930A93DD
:10087E000E94DD10E0E0F8E00E94EF10E3E8F9E0FE
:10088E000E94EF10E0E0FAE00E94EF10EFEAFBE0CA
:10089E000E94EF1000E010E0003CEAE51E073CF479
:1008AE00EA81FB810E94F3100F5F1F4FF5CF198174
:1008BE000881249608950E942111E4E0FEE70E942B
:1008CE00EF100E943311E8E4FAE50E94EF100E9447
:1008DE0021110E9430110E943311EFEFF4E60E94B5
:1008EE00EF10E0E0F5E60E94EF100E9421110E9449
:1008FE0030110E943A110E948714E2E6F2EE0E9435
:10090E00EF100E943F11E2E0F2EE0E94EF100E9403
:10091E003311E2E0FCEB0E94EF100E9421110E94C5
:10092E0030110E941B11E0E0F2EE0E94EF10EAE09F
:10093E00F0E00E944511E0E0F0E80E94EF10E4E0E4
:10094E00F2EE0E94EF100E941B11E0E0F2EE0E9408
:10095E00EF100E941B11E0E0F1EE0E94EF100E94DA
:10096E001B110E942D11E0E0FCEB0E94EF100E9483
:10097E002111E1E0FFE7FA93EA93C8DD0895AA9307
:10098E00EA93FA93EFB7EA931A930A931BB10CB159
:10099E00E12FEC7179F4E09161030E94491100831B
:1009AE00A0916103AF5FA0936103A83C19F4E0E04E
:1009BE00E093610309911991E991EFBFF991E991E2
:1009CE00A9911895E0E0E0936103E881E150E88396
:1009DE00EF5F49F05D9BFECFE981FA810590E983D7
:1009EE00FA830CB8F2CF239608950E944D11E6E0DB
:1009FE00E2BFA2E6B3E00E945411EB3FA0E0FA077B
:100A0E0038F0E0E0E0936203E0936303689424F827
:100A1E0014C00E944D11E7EEEDBDE6E9ECBDA4E673
:100A2E00B3E00E945411ED32A1E0FA0730F0E0E09D
:100A3E00EEBDE89426F8689427F8E991EFBFF99196
:100A4E00E991B991A9911895E881E064E7B985E338
:100A5E008A95F1F7369A349BFECF349AE4B1F5B10C
:100A6E0021960895E89420F8E0EAEABBEFE50E94AB
:100A7E005A11E6E0EA93E8DFE436A0E0FA07B8F5AB
:100A8E00689420F8F60131966F013197E1E0F0E0BD
:100A9E00EC15FD050CF421F8EFE70E945A11E4E085
:100AAE000E945E11AFEDBFE48DE89EE30E948915B2
:100ABE00A0E0B0E088E693E40E9466114F01EFE5F6
:100ACE00EABBEFEB0E945A11E5E00E945E11A0E036
:100ADE00B0E080E89EE30E948915DF01CB01E0E0E3
:100AEE00F0E067E872E40E9466115F0104C0E894CA
:100AFE0021F8CC24DD240895E2E0EBBBE0E0EABB74
:100B0E00E8BBEFEFE7BBE0E0E5BBE4BBE2BBE1BB7C
:100B1E00E3E0E3BFE6E0E2BFE0E0ECBFEFBDEEBD39
:100B2E00E7EEEDBDE6E9ECBDE0E0E7BDE6BDEBBD11
:100B3E00EABDE9BDE8BDE2BDE5BDE4BDE3BDE5BF8F
:100B4E00E4BFE5E0E9BFE0E0EBB9E8E9EAB9E6E8E1
:100B5E00E0BDE0E0E0BDEFE5E9B9E0E8E8B9E0E0EE
:100B6E00E0BFE0E4E7B9E7E8E6B9E0E5EDB9E1E0DA
:100B7E00EEB9E0E0E6BF7894F6DD0E947011E1E098
:100B8E00F0E03F01689425F8C99B04C00E9427112C
:100B9E00C99991DE67DFF301E130A0E0FA0711F0A9
:100BAE000C943C0624FE28C0E0E2EA93ECE3EA93C0
:100BBE00E0E6F1E00E9474110E943F11E4E6F2E0DB
:100BCE00FA93EA93E5E00E947E11A0916603AF5F6F
:100BDE00A0936603A93078F0E0E2EA93ECE3EA939F
:100BEE00E0E7F1E00E947411E0EDF7E00E9445119C
:100BFE00E0E0E093660338C0A0916103AC30A0F151
:100C0E000E948411E5E0EA83AA81AB3058F4EA81B0
:100C1E000E9449110E948A110E948D11EA81EF5F94
:100C2E00EA83F2CFE881EA83A091A402EA17C1F425
:100C3E00A091A102A13CA1F4A0E0B0E00E94EC16AC
:100C4E00E130A0E0FA0721F4E2E0F0E03F0106C057
:100C5E00E2E0F0E03F01689422F823F8689425F86A
:100C6E00E0E0E09361032396F9C5E230A0E0FA07D5
:100C7E0011F00C94E30825FE9DC00E9494110E9471
:100C8E0094110E949911E0E2F0E00E949E110E94E0
:100C9E00A8110E9494110E94AD11E0E2F0E00E94B2
:100CAE00B2110E94BC11EDEFEA93E0E0EA93E0E8A6
:100CBE00F1E00E94C1110E94CD11E2E6EA93E0E05C
:100CCE00EA93ECE8F1E00E94C1110E949411E1E276
:100CDE00F0E0FA93EA930E949911E1E4F0E00E94A9
:100CEE00B2110E94A811E1E2F0E00E94D211E1E4FB
:100CFE00F0E00E949E110E94CD11ECE0EA93E1E239
:100D0E00EA93E5E9F1E00E94C1110E94BC11E2E60E
:100D1E00EA93E1E2EA93EDE9F1E00E94C1110E944B
:100D2E009411E2E4F0E0FA93EA930E949911E2E65C
:100D3E00F0E00E949E110E94A811E2E4F0E00E94F1
:100D4E00D211E2E6F0E00E94B2110E94BC11E1E085
:100D5E00EA93E2E4EA93E6EAF1E00E94C1110E940E
:100D6E00CD11EAE6EA93E2E4EA93E1EBF1E00E94C8
:100D7E00C1110E949411E3E6F0E00E94D211E3E863
:100D8E00F0E00E94D511E8DB44245524E1E1EA931A
:100D9E00E3E6EA93E8EBF1E0FA93EA93EFEFFFEF85
:100DAE000E94D811A0E0B0E0E1E0F0E00E94FC1655
:100DBE00E89425F824FE03C00E94DE11D3C1A09151
:100DCE006103AB3010F40C94B9080E94E41114F0D6
:100DDE000C94B808E6E0EC830E94F6113A96AC81CA
:100DEE000E9417115CF4EC810E9449110E948A1135
:100DFE000E94F911EC81EF5FEC83EECFEA81EC8378
:100E0E000E94F611ED55FD4FA081EC81EA1711F00D
:100E1E000C94B50822FC59C10E94BC11E091AD02A0
:100E2E00F0E0B897EC83E07811F1EC81F0E0A0E00F
:100E3E00B1E00E94E516EA1BEC830E940012EAE084
:100E4E00F3E00E940512349748F40E9414120E9497
:100E5E000012EAECF1E00E94191204C00E94141272
:100E6E00E9E7F2E0FA93EA930E941D1219C00E947C
:100E7E000012EBE0F3E00E940512349748F40E9452
:100E8E0014120E940012ECECF1E00E94191204C040
:100E9E000E941412E9E7F2E0FA93EA930E941D12FF
:100EAE00E091AF02E9830E940012EFE0F3E00E94AE
:100EBE0027120E94CD110E943412339758F4E5E7A1
:100ECE00EA93EBE0EA930E940012EEECF1E00E944E
:100EDE00191206C0E5E7EA93EBE0EA93E9E7F2E0E0
:100EEE00FA93EA930E941D120E94CD11E981E0301F
:100EFE00E9F00E9400120E943712A091B002E8E2BF
:100F0E000E943C12349748F40E9447120E9400122D
:100F1E00E0EDF1E00E94191204C00E944712E9E7C9
:100F2E00F2E0FA93EA930E941D121CC00E94001276
:100F3E000E943712A091B102EAE00E943C1234974F
:100F4E0048F40E9447120E940012E2EDF1E00E9466
:100F5E00191204C00E944712E9E7F2E0FA93EA93ED
:100F6E000E941D120E94BC110E9400120E94371294
:100F7E00E091B6020E944C120E943412339758F43C
:100F8E00EDE7EA93ECE2EA930E940012E4EDF1E061
:100F9E000E94191206C0EDE7EA93ECE2EA93E9E744
:100FAE00F2E0FA93EA930E941D120E94BC110E9475
:100FBE0000120E945612E091B702FF27662777278C
:100FCE000E94FF14DF01CB010E945B120E94D71515
:100FDE00A6E6B6E686EA90E40E9460120E946512CA
:100FEE00349758F4E0E1EA93EDE4EA930E9400129C
:100FFE00E6EDF1E00E94191206C0E0E1EA93EDE49D
:10100E00EA93E9E7F2E0FA93EA930E941D120E9436
:10101E00CD110E9400120E945612B091BC02A0E0A7
:10102E00E091BB020E946A12E0E0F0E06AEF72E427
:10103E000E9474120E946512349758F4E2E7EA9304
:10104E00EDE4EA930E940012E8EDF1E00E9419121D
:10105E0006C0E2E7EA93EDE4EA93E9E7F2E0FA93F9
:10106E00EA930E941D12442455240E9479120E9474
:10107E007F1236974CF10E94A4120E94AD12D0F44A
:10108E000E9400120E9456120E94C012349748F419
:10109E000E94CB120E940012EBEDF1E00E94191299
:1010AE0004C00E94CB12E9E7F2E0FA93EA930E94A1
:1010BE001D1208C00E94CB12EDEDF1E0FA93EA93F7
:1010CE000E941D120E94D01249C023FE16C00E941B
:1010DE00DE120E94CD11EAE5EA93E7E6EA93E2EE2C
:1010EE00F1E00E94E6120E94ED12E89423F8A0E0CF
:1010FE00B0E0E0E0F0E00E94FC160E94CD110E94EC
:10110E0079120E947F1236974CF10E94A4120E940F
:10111E00AD12D0F40E9400120E9456120E94C0120C
:10112E00349748F40E94F1120E940012E8EEF1E0AA
:10113E000E94191204C00E94F112E9E7F2E0FA933C
:10114E00EA930E94F61208C00E94F112EAEEF1E054
:10115E00FA93EA930E94F6120E94D012E0E0E09316
:10116E006103259620FE02C021FE01C024C022FC90
:10117E000EC0EAE5F0E0EA15FB0524F4689422F8C7
:10118E0023F804C00E940013E89422F807C0689464
:10119E0025F8E2E0F0E03F01E89422F8E0E0E09389
:1011AE006703E0936803E0936903E0936A03E093B7
:1011BE006B03E0936C0352C3E430A0E0FA0711F026
:1011CE000C94520925FE14C00E947011EFE3EA93AD
:1011DE00E5E0EA93EFEEF1E00E94C111E4E1EA935B
:1011EE00E4E4EA93E4EFF1E00E94C111E89425F8FB
:1011FE0024FE08C0E6E8F2E0FA93EA93E6E00E94E5
:10120E007E1141C0A0916103A831E8F10E948411C2
:10121E00E6E0EA83AA81A73158F4EA810E944911D7
:10122E000E948A110E948D11EA81EF5FEA83F2CF4C
:10123E00E881EA83A091B002EA1721F50E9400121C
:10124E00ECE3F3E0FA93EA93A091A7020E9406134F
:10125E000E941413EEE1EA930E9400120E941D12E6
:10126E000E940012ECE3F3E0FA93EA93A091A90234
:10127E000E9406130E941413EAE5EA930E940012DC
:10128E000E941D12239620FE02C021FE01C002C044
:10129E000E940013E3C2E330A0E0FA0711F00C94B1
:1012AE00510A25FE17C00E94DE120E941B130E94D7
:1012BE002A130E94CD11E5E0EA93EA93E5E0F2E00D
:1012CE000E94C1110E943213E8E1F2E00E94C111A6
:1012DE00E89425F824FE08C0E0E7F2E0FA93EA93DA
:1012EE00E8E00E947E11A1C0A0916103AD3010F420
:1012FE000C941C0A22970E943A13E091A502E983EE
:10130E00A3E0EA02F001E35FE883A0916103EA172C
:10131E0010F00C941B0A0E948411E8E0EA83EB8122
:10132E00AA81AE1758F4EA810E9449110E948A11CF
:10133E000E948D11EA81EF5FEA83F1CFE881EA83A3
:10134E00EB810E944911A081EA81EA1711F00C94F9
:10135E00170A0E94CD110E9400120E943712E885D2
:10136E000E944C12E6E9EA93E5E0EA930E9400122D
:10137E00E0917502F09176020E94D811EC81E03076
:10138E0011F40C94170AE0E0EA83EC81AA81AE17FF
:10139E0010F00C94170A0E940012ECE5F3E0FA9399
:1013AE00EA93AE81E3E0EA9FF001EA55FD4F0E9419
:1013BE003E13AA85E3E0EA9FF001E955FD4F0E9436
:1013CE003E1388E00E94940F2C96AA81A53020F43B
:1013DE00E5E0EA93EB8117C0AA81A53010F0AA30A0
:1013EE0008F006C0E1E4EA93EB81F0E035970BC01C
:1013FE00AA81AA3010F0AF3008F00EC0EDE7EA93E4
:10140E00EB81F0E03A97AFE0EA02F001E75EEA9393
:10141E00E9E7F2E00E947411EA81EF5FEA83B5CF4B
:10142E00E0E0E09361032396229620FE02C021FEA7
:10143E0001C02FC0EDE3F0E0E815F9057CF4E3E719
:10144E00F0E08E169F0654F4ECE6F0E0EA15FB058C
:10145E002CF4ECE7F0E0AE16BF060CF018C00E94BC
:10146E001B130E94E6120E944513EEE1F2E00E9469
:10147E00C111E8E7F2E0FA93EA93E7E0EA93A2DA21
:10148E00E8ECF0E00E944511689425F802C00E9435
:10149E000013E4C1E530A0E0FA0711F00C943E0B06
:1014AE0025FE28C00E947011EFE0EA93E5E0EA9372
:1014BE00E4E2F2E00E94C111E1E4EA93E9E1EA9389
:1014CE00E6E3F2E0FA93EA930E944F13E2E3EA9323
:1014DE00E9E3EA93EAE3F2E00E94C1110E941B13D2
:1014EE000E942A130E943213E3E4F2E00E94C1111B
:1014FE00E89425F824FE03C00E94DE1188C0A09156
:10150E006103AB3010F40C940E0B0E94E41114F036
:10151E000C940D0BE6E0EC830E94F6113A96AC812A
:10152E000E9417115CF4EC810E9449110E948A11ED
:10153E000E94F911EC81EF5FEC83EECFEA81EC8330
:10154E000E94F611ED55FD4FA081EC81EA1711F0C6
:10155E000C940A0BE091B602E983E03011F4689422
:10156E0026F8A981A13010F026FC01C00BC027FC83
:10157E0007C0E4E0EEBDA981A43620F0689427F8F8
:10158E00E0E0EEBD0E9400120E945612E09164034C
:10159E00F0916503662777270E94FF14ADECBCEC33
:1015AE008CEC9DE30E9489150E94DA1684E00E945D
:1015BE00940F28960E94CD11E1E4EA93E9E1EA93B3
:1015CE000E9400120E944F130E940012E3E1F3E00A
:1015DE000E9427120E943412339758F4E3E4EA93E0
:1015EE00EBE4EA930E940012E9E4F2E00E94191281
:1015FE0006C0E3E4EA93EBE4EA93E9E7F2E0FA9358
:10160E00EA930E944F13E0E0E0936103259620FEDB
:10161E0002C021FE01C02AC0EDE3F0E0E815F90595
:10162E007CF4E3E7F0E08E169F0654F4ECE6F0E06F
:10163E00EA15FB052CF4ECE7F0E0AE16BF060CF055
:10164E0011C00E941B130E94E6120E944513EBE488
:10165E00F2E00E94C1110E9454130E94CD116894B1
:10166E0025F804C00E9454130E940013F7C0E63000
:10167E00A0E0FA0711F00C94350C25FE79C0E0EECF
:10168E00FFEFFA93EA93F2D80E94CD11E8E0F0E072
:10169E000E945E13E3E5F0E00E9465130E946A1358
:1016AE00E4E1F0E00E9471130E943A110E94781357
:1016BE00E7E6EA93E4E2EA93E1E5F2E00E94C11183
:1016CE00EDE5F0E00E945E13E8EAF0E00E9465139B
:1016DE000E948013E4E1F0E00E9487130E943A1109
:1016EE000E947813E6E0EA93E4E2EA93E8E5F2E09A
:1016FE000E94C111E8E0F0E00E948E13E3E5F0E0F5
:10170E000E9495130E946A13E8E4F0E00E947113A0
:10171E00E0E7F0E00E949E11EBE6EA93E0E5EA9343
:10172E00E2E6F2E00E94C111EFE6EA93E0E6EA9308
:10173E00E8E6F2E00E94C111EDE5F0E00E948E13A2
:10174E00E8EAF0E00E9495130E948013E8E4F0E0CE
:10175E000E948713E0E7F0E00E949E11EFE1EA930A
:10176E00E7E5EA93EDE6F2E00E94C111E89425F870
:10177E0024FE07C0E0E8F2E0FA93EA93E6E00E9466
:10178E007E1120FE02C021FE01C068C0EAE0F0E03A
:10179E00E815F9057CF4E0E5F0E08E169F0654F4AA
:1017AE00E5E1F0E0EA15FB052CF4EBE3F0E0AE1614
:1017BE00BF060CF005C0689425F8E2E0F0E03F01AA
:1017CE00E4E5F0E0E815F9057CF4E5EAF0E08E16C4
:1017DE009F0654F4E5E1F0E0EA15FB052CF4EBE38B
:1017EE00F0E0AE16BF060CF005C0689425F8E3E0F5
:1017FE00F0E03F01EAE0F0E0E815F9057CF4E0E501
:10180E00F0E08E169F0654F4E9E4F0E0EA15FB05CD
:10181E002CF4EFE6F0E0AE16BF060CF005C06894AF
:10182E0025F8E4E0F0E03F01E4E5F0E0E815F90525
:10183E007CF4E5EAF0E08E169F0654F4E9E4F0E05D
:10184E00EA15FB052CF4EFE6F0E0AE16BF060CF041
:10185E0005C0689425F8E5E0F0E03F0195C9FFCF9B
:10186E00E991F991A991B991CD016D916623E9F7AD
:10187E00119761916D936623E1F7FC010895E9914B
:10188E00F991A991B991CD0105900D920020E1F742
:10189E00FC010895A991B991EE27FF276D9166235A
:1018AE0011F03196FBCF0895AA27BB27E991F99144
:1018BE000590002011F01196FBCFFD0108951A93AB
:1018CE000A93AA81BB8112960E94C616309729F1FF
:1018DE00AA81BB8114960E94C6168F01309761F0C3
:1018EE000230E0E01E07C0F0F80131978F01AA81A7
:1018FE00BB811496ED93FC93AA81BB8112960E9434
:10190E0054113197AC81A083AA81BB810E94C61667
:10191E00FF2312F00E94541106C0AA81BB81EFEF83
:10192E00FFEFED93FC931981088125960895249776
:10193E000E943A13E0E8EA83EFE3EB830E941B1761
:10194E00EE85FF85EF3FAFEFFA0749F4E885F9859D
:10195E00FA93EA93E8E9F3E00E949A13BAC0EF3FD4
:10196E00AFE7FA0749F4E885F985FA93EA93E9E9CE
:10197E00F3E00E949A13ADC0AB85A73010F0E6E0FD
:10198E00EB871B85E12F1150E03019F00E949E135A
:10199E00F9CFEC85FD856E857F850E94151721F4A4
:1019AE0030E00E949E1330C03B850E94AD1309F0BB
:1019BE0010F40C94ED0C0E949E130E94AD1328F0AF
:1019CE000E94B8130E94BD13F8CF0DC00E94AD1334
:1019DE0040F40E94B8130E94C9130E94D0133150D4
:1019EE00F5CF0E949E13EC85FD856E857F850E9446
:1019FE00D5130E9439150E94D0130E94AD1320F00A
:101A0E000E94B8130E94BD1310E0EB85E117A8F1F8
:101A1E00AC81BD818E819F810E94DA130E94D51305
:101A2E000E9460120E94C810EC83FD836E837F8338
:101A3E000E94B8130E94D7150E94C6140E2F0E9442
:101A4E00E1130E94E813FF27662777270E94FF14F1
:101A5E00AC81BD818E819F810E9489150E94B81331
:101A6E000E94ED130E94D013E12F1F5FE03069F644
:101A7E000E94E113EEE2EC93C8CF0E94F21331976D
:101A8E00AA85A08330302CF43195A885B985EDE276
:101A9E0003C0A885B985EBE2EC930E94F2130E9475
:101AAE00F2133197BF01A32FEAE00E947216E05D98
:101ABE00DB01EC930E94F2133197BF01A32FEAE0F2
:101ACE000E949C16E05DDB01EC93A885B985E0E0F1
:101ADE00EC930E94221760960895EF9761970E94EB
:101AEE00191710E0FE01E85AFF4F0190F081E02D2A
:101AFE00E887F987FE01EA5AFF4F0190F081E02D49
:101B0E00EE83FF83AE81BF81E0E0F0E0ED93FC93C6
:101B1E00DE01A45ABF4F0E9454113197E4912E2F2B
:101B2E00E03011F40C948B0FE12FE03039F42532B4
:101B3E0011F411E002C00E94F813E5C1E130C1F4C6
:101B4E00253219F40E94F813DDC112E0E0E0ED8BAE
:101B5E0000E02D3211F401E0D6C12B3219F4EBE284
:101B6E00ED8BD1C1203219F4E0E2ED8BCCC102C075
:101B7E00E23039F450E013E0203311F40068C3C1B1
:101B8E0002C0E33091F4203310F02A3308F007C07E
:101B9E00AAE05A9F502DE22FE0535E0FB4C140E0F1
:101BAE002E3211F414E0AFC10FC0E43099F420339B
:101BBE0010F02A3308F008C00062AAE04A9F402DB8
:101BCE00E22FE0534E0F9FC12C3619F4026015E040
:101BDE009AC104C0E53011F00C948A0FE22FE3365F
:101BEE0059F40E9401140E9408140E940114A48149
:101BFE00AA930E940F1486C1E53411F0E53609F45C
:101C0E0004C0E63611F00C94570EFE017696EE8760
:101C1E00FF870E9417140E94CA160E941E140E946B
:101C2E002314AD85AA2322F0AD89AB3249F017C03B
:101C3E000E9425140E9493140E941E14EDE2ED8B57
:101C4E0007FF05C0ED89EA930E940F1408C0EE85C8
:101C5E00FF853196EE87FF873197AD89A08305FF0B
:101C6E0046E0263661F40E9425140E94DA164A9345
:101C7E00EB89FC89FA93EA930E94D20F0BC00E9463
:101C8E0025140E94DA164A932A93EC89FD89FA9359
:101C9E00EA934DDEFE0176960E942A141E2F1FC077
:101CAE00E33741F40E9423140E942D140E942A143B
:101CBE001E2F0EC0E037C1F40E9423140E942D1473
:101CCE00EE87FF87FA93EA930E945B0C1E2F086043
:101CDE000F77403011F0411708F001C0142F40E08B
:101CEE00E0E0EC8B30E06EC0E43611F0E93611F432
:101CFE00046002C0E537A1F4EAE0EC8B01FF08C0F6
:101D0E00E0E0FAEC6AE97BE30E9432141AE023C0A9
:101D1E00E0E1F7E260E070E00E94321415E01BC0D3
:101D2E00E83511F4086004C0E83711F00C94890FFF
:101D3E00E0E1EC8B01FF08C0E0E0F0E060E070E174
:101D4E000E94321418E007C0E0E0F0E160E070E0BD
:101D5E000E94321414E0403011F00F7701C041E0C0
:101D6E0001FF08C00E9423140E94171414960E94AB
:101D7E00CA160FC002FF07C00E9423140E942D1422
:101D8E000E94521606C00E9423140E942D1466272C
:101D9E007727EA87FB876C877D8702FF12C0AD85A8
:101DAE00AA2342F40E9425140E9444160E941E1477
:101DBE00EDE2ED8BED89E03019F01F5F4F5F01C052
:101DCE000B7F342F00FD14C0151710F4351708F0D3
:101DDE000FC007FF08C002FF04C00B7F2D891150F2
:101DEE0001C020E301C020E20E94F8135150ECCF55
:101DFE00141790F4006102FF06C00E94371409F018
:101E0E00515011504150E0E3EA930E940F145030AC
:101E1E0009F051504150ECCF312FEC89E030B9F43C
:101E2E003030A1F003FF06C0EE85FF852591EE87C9
:101E3E00FF8705C0AE85BF852D91AE87BF870E94F7
:101E4E00F813503009F051503150EACF51C00E9472
:101E5E004B140E9477162E2F2A3030F003FF02C04B
:101E6E00295C01C0295A01C0205D04FD21C0213327
:101E7E0060F4A889B9898A899B89A130E0E0BE0700
:101E8E00E0E08E07E0E09E0709F40BC0431740F434
:101E9E00531710F000FF01C010C020E207FF08C06A
:101EAE0020E3006102FF04C00E94371409F0515074
:101EBE000E94F813503009F0515031500E944B14CB
:101ECE000E94A8160E941E14EC89A889B9898A89D5
:101EDE009B89FF27662777270E9477160E94321468
:101EEE00E889F9896A897B890E94151709F0AFCFB5
:101EFE0000FF08C0503031F05150E0E2EA930E94EA
:101F0E000F14F8CF10E004CEAE81BF810E94C6162A
:101F1E000E942017EF966F960895FF92F82E26973F
:101F2E000E941B170E945414309719F4EFEFFFEF25
:101F3E0025C0DE0116960E943C168D010E94541497
:101F4E00EE83FF83E0E0E887E987DE011A960E94C0
:101F5E003C160E94C616FA93EA931A930A93E6E683
:101F6E00FCE0FA93EA93FE013A96FA93EA93B5DD12
:101F7E009F01AE81BF81E0E0EC93F9010E94221730
:101F8E002A96FF900895E991F99130971AF4E09509
:101F9E00F0953196089524970E943A13E0E0EA8373
:101FAE00EFE3EB831A930A93EB85FC85EF3FAFEFDC
:101FBE00FA0739F40E945B14E0EAF3E00E949A13E8
:101FCE00ADC0EF3FAFE7FA0739F40E945B14E1EAC8
:101FDE00F3E00E949A13A2C0AC85AA2362F4E985AD
:101FEE00FA856B857C850E9493140E9460140E9472
:101FFE006514EDE2EC93A885A73010F0E6E0E887D3
:10200E001885E12F1150E03039F00E946C140E94B7
:10201E00DA130E947114F5CF0E9476140E943915BE
:10202E000E94601410E0E0E0F0E060E87FE30E94C0
:10203E0071140E9476140E941C1688F00E946C1473
:10204E000E94C9130E9471141F5F173238F00E944C
:10205E005B14E5EAF3E00E949A1360C0EACF1030F9
:10206E0029F40E946514E0E3EC932BC0E12F11508C
:10207E00E03039F10E946C140E94DA130E94D513DD
:10208E000E9460120E94C8100E9471140E94761461
:10209E000E94D7150E94C6140E2F0E9465140E942E
:1020AE00E813F0E00E946C140E9452160E94FF1476
:1020BE000E9489150E947F140E94ED130E946014E5
:1020CE00D5CFE885E03031F10E946514EEE2EC9355
:1020DE00E885E150E887EF5FE9F00E947F140E94E7
:1020EE00C9130E946014E985FA856B857C850E9470
:1020FE00C6140E2F0E9465140E94E813F0E00E9491
:10210E007F140E9452160E94FF140E94ED130E942B
:10211E006014DECFAE81BF81E0E0EC9319810881BF
:10212E002D9608957B816A81F981E88177FB770F7F
:10213E0067FD7160972F9E5781F078F0983190F47B
:10214E00AA27BB27882708948795B795A7959A95B0
:10215E00D1F7EA23FB23682305C0E8947727EE27FF
:10216E00FF2766276F77769508F4606877F9A9914F
:10217E00B99189919991EA17FB076807790797FB3F
:10218E0008950E9484140E94DA160E9499100E94EB
:10219E00D51611F4B2D308C0EEF7AFD3A0E0B0E07D
:1021AE0080E89FE30E94321524960895E0E9FFEE41
:1021BE00FA93EA930E948D02E4E0F5E0FA93EA9333
:1021CE000C948D02E050F84FFA93EA930C948D0222
:1021DE00FA93EA930C948D02FA93EA930C949F026D
:1021EE00EB85F0E00895EA9FF001DB01AE0FBF1F13
:1021FE001197BA93AA930C948D02F0E0ABE0B0E085
:10220E000E94E516EA1BFB0B0895EF81F885E4CFDB
:10221E005A924A920C949F02FA93EA930C94510CA0
:10222E00B0E0AE17BF070895E4E1F0E0FA93EA9349
:10223E000C948714E0E0FFEECBCFE0E9FFEEC8CFC1
:10224E00E5E0F0E0FA93EA930C948714E0EBFFEEEE
:10225E00BFCFE1E0FFE7BCCFECE3F0E0FA93EA9307
:10226E000E948714F3CFECE3F0E0FA93EA9308951B
:10227E00E4E6F0E0FA93EA930C948714FA93EA9367
:10228E000C948714F0E0E756FD4F0895AA93BA9385
:10229E00EA93FA93EFB7EA930895ED91FD91319693
:1022AE00FE93EE930895EBBBE1E0F0E0E7CFEA9307
:1022BE000E942B05662777270E94FF1408950E941F
:1022CE00DF160E9432150E94C814FA93EA930C94FA
:1022DE00CA0F5A924A920C943D04FA93EA93E0EE96
:1022EE00FFEAFA93EA93E1E0EA930C949103EA93FE
:1022FE000E94E904E89424F808952397E0E0E88327
:10230E00E983EA830895E081F0E00895A881B98118
:10231E00EA0FFB1FE883F9830895E0E0F0E0FA93FB
:10232E00EA930895E7E5F0E0FA93EA930895FA93B5
:10233E00EA93E0917102F0917202FA93EA930C948F
:10234E00B302E8E5F0E0FA93EA930895EFEAF0E0DD
:10235E00FA93EA930895FA93EA93E0917302F09157
:10236E007402FA93EA930C94B30240907302509065
:10237E0074020895FA93EA93E0917702F09178024D
:10238E00FA93EA93E1E0EA930C9491034090710280
:10239E00509072020895FA93EA93D8CFFA93EA9383
:1023AE00BCCFFA93EA93E1E0EA930C949103EAE648
:1023BE00F2E0FA93EA93E6E09ACF2597E0E0E8831D
:1023CE00E983EA83EB83EC83E091A202E883F0E0F9
:1023DE003A96A0916103B0E0EA17FB070895E881F1
:1023EE00F0E00895AA81BB81EA0FFB1FEA83FB830D
:1023FE000895E9E7F2E0FA93EA930895FA93EA93DF
:10240E00E885FF27662777270E94DA1684E00E9468
:10241E00940F2896E9E7F2E0FFCEE9E1EA93EBE0CC
:10242E00EA930895FA93EA930C94370CE0917502AF
:10243E00F0917602FA93EA93E2E0EA930C94910318
:10244E00FA93EA93ED81FF27662777270E94DA1623
:10245E0084E00E94940F28960895E9E7F2E0DCCE1E
:10246E00E3E1F3E0FA93EA930895EA9FF0010E9404
:10247E0052160E94DA1684E00E94940F2896EDCF31
:10248E00E4E1EA93ECE2EA930895FF2766277727C3
:10249E000E94DA1684E00E94940F28960895E6E1D1
:1024AE00F3E0FA93EA930895E0E0F0E060EA71E475
:1024BE0008950E9439150E94DA16089584E00E944C
:1024CE00940F2896CACFF0E0EA0FFB1F0E94521617
:1024DE000E94FF14DF01CB0108950E94D7150E94C0
:1024EE00DA160895B091C402A0E0E091C302EBCFDA
:1024FE00E0E0F0E060E073E40E94D7150E94C8149B
:10250E00FA93EA930E94CA0FA0916703B0916803F1
:10251E008091690390916A03662777270E94FF14C2
:10252E000E943915E0936703F09368036093690383
:10253E0070936A03ABE6B3E0B0CEA0916703B0919F
:10254E0068038091690390916A030895E0E0F0E0DA
:10255E0060EC70E40E94D715E0936703F093680374
:10256E006093690370936A03E8DF9EDF0E941C1676
:10257E000895E0916703F09168036091690370918B
:10258E006A030E94DA169ACFE6E4EA93EEE6EA933D
:10259E000895E0E0E0936B03E0936C03E093670330
:1025AE00E0936803E0936903E0936A030895E09172
:1025BE007102F0917202FA93EA930C943D04FA932D
:1025CE00EA93E0EEF7E0FA93EA930895E2E0EA93F5
:1025DE000C949103E2E3EA93EAE2EA930895E09120
:1025EE007502F0917602FA93EA93E4E0EA930C9482
:1025FE009103689425F8E6E0F0E03F010895E5E0E8
:10260E00EA9FF0010E9452160E94FF14DF01CB01D7
:10261E00E0E0F0E060E873E460CF84E00E94940FA5
:10262E002896EEE1EA930895E5E3F0E0FA93EA9353
:10263E00E9E6F0E0FA93EA93EBE7F0E0FA93EA9337
:10264E00EFE7F0E00895FA93EA93E0E0F8EFFA93FB
:10265E00EA930C94B302E0E0F8EF2F01E1E4EA9381
:10266E00E0E7EA930895E0E0E883E9830895E081E6
:10267E00FF27662777270E94DA1608950E94B30275
:10268E00E0EEF7E02F01E1E4EA93E0E7EA93089544
:10269E00E0EEFFEAFA93EA9399CFE0E0EEBDE09325
:1026AE006403E0936503E89426F827F80895FA93F7
:1026BE00EA93E3E1F0E0FA93EA930895FA93EA934A
:1026CE00EDE3F0E06BCE0E94B302E9E0F0E0FA93A6
:1026DE00EA930895FA93EA93E2E5F0E0FA93EA9327
:1026EE000895E0917102F0917202FA93EA930C94BC
:1026FE00B3020E94B302EEE5F0E0FA93EA93089576
:10270E00FA93EA93E7EAF0E0FA93EA930895FA93DC
:10271E00EA93E7E4F0E0FA93EA930895FA93EA93E2
:10272E00E1E7F0E03BCEFA93EA930C94460CAC81D1
:10273E00BD818E819F81E0E0F0E060E271E40E9455
:10274E008915EC83FD836E837F830895EC81FD8173
:10275E006E817F81AC85BD858E859F850E941C16FE
:10276E000895AC85BD858E859F850895EDECFCECB6
:10277E006CEC7DE30E948915EC87FD876E877F8761
:10278E003F5F0895E0E0F0E060E271E40E94891599
:10279E000895EC87FD876E877F870895A0E0B0E0EF
:1027AE0080E09FE30895EDECFCEC6CEC7DE30E9481
:1027BE0089150895A885B9851196A887B9871197A7
:1027CE000895E02FE05DEC93E02F08950E94DF1650
:1027DE000E9432150895E885F9853196E887F987C4
:1027EE0008952A93EF81F885FA93EA93EB85FC8599
:1027FE0009950895FE01E65AFF4F0190F081E02DF4
:10280E0008953497DE01A65ABF4FED93FC930895B9
:10281E00EF81F885FA93EA93EB85FC850995089587
:10282E00DE01A65ABF4F0D90BC91A02D0895EA87E8
:10283E00FB876C877D870895DDDFE3CFEA85FB8517
:10284E006C857D850895EE87FF87E6CCE9DF1496CB
:10285E000E94C6160895E88BF98B6A8B7B8B0895C0
:10286E000B7FED89EA93FE01E95AFF4F0190F0814B
:10287E00E02DFA93EA93FE01E55AFF4F0190F081A5
:10288E00E02D099550300895E889F9896A897B8988
:10289E00AA85BB858C859D850895DE011C960E94B8
:1028AE003C160E94C6160895EE81FF81FA93EA93B4
:1028BE000895E987FA876B877C870895AE81BF817B
:1028CE001196AE83BF8311970895AA81BB818C8127
:1028DE009D810895EA83FB836C837D830895EA814D
:1028EE00FB816C817D81A985BA858B859C85089538
:1028FE00A985BA858B859C8508950E94D01608956A
:10290E00E991F991309639F080EA9FE00197F1F75D
:10291E00A8953197C9F7089530976040704009F037
:10292E0070580895552342F4503811F4E0FF04C056
:10293E003196691F791F6BF050E8572711F45F939A
:10294E00CFC05F3F31F0660F000C57956795752F1E
:10295E0008955F9300200AF0CFC0C8C050E8192E2A
:10296E001522880F991F9527550F879550E8072E2A
:10297E000522660F771F7527550F67950895689482
:10298E0001C0E8945F93F2DF703818F07F3F08F4CF
:10299E00A7C056E1571BAAF4519558300EF4593082
:1029AE0030F0EFEFFFEF6FEF7FE777F91AC0772781
:1029BE005523B9F0EE0FFF1F661F771F5A95D1F7FB
:1029CE0010C07727583028F0EF2FF62F672F58506A
:1029DE00F9CF552331F076956795F795E7955A958A
:1029EE00D1F700200AF449D15F910895689401C08F
:1029FE00E894309760407040B1F0002426F07723C1
:102A0E0012F400943AD1172E7EE1112032F07A950D
:102A1E00EE0FFF1F661F111CF9CFEF2FF62F612D42
:102A2E005F938ADF5F9108954F93AF01FD01DA0145
:102A3E00AB01BC01CA01402D012C142E4F910895FB
:102A4E00EA0FFB1F681F0895E095F0956095EF5F04
:102A5E00FF4F6F4F08955F9381DF903871F150E80B
:102A6E00152604C05F937ADF903839F1703821F162
:102A7E00572F591B2BF112F4D7DFFACF583118F01C
:102A8E00AA27BB278827583028F0AB2FB82F8827C6
:102A9E005850F9CF552329F08695B795A7955A9595
:102AAE00D9F7502D512572F0CBDF38F46795F79595
:102ABE00E795739513F420C0B7DF3EDF5F9108955D
:102ACE00D8F7FBCFEA1BFB0B680B51F010F4009408
:102ADE00BBDF662392F3EE0FFF1F661F7A95CBF7CF
:102AEE00EE27FF27662777275F910895EFEFFFEF19
:102AFE006FE77FEF5F910895EFEFFFEF6FE77FE7EF
:102B0E005F9108955F932ADF703851F3903841F347
:102B1E0001240894791F23F41CF300203AF3ECCF20
:102B2E000F921F932F933F934F931127222799278D
:102B3E00689FA0018F9F302D410D591F6B9F300D47
:102B4E00411D591F8E9F27D0BF9F25D06A9F23D02E
:102B5E00BE9F1DD0AF9F1BD0AE9F110D291F391FD9
:102B6E00491F591FE32FF42F652F522F4F913F917D
:102B7E002F911F910F9066232AF0550FEE1FFF1F06
:102B8E00661F02C073954BF2CDDE5F910895100D56
:102B9E00211D391F02C0200D311D491F591F0895D7
:102BAE005F93DCDE703821F411200AF49FCFA4CF9E
:102BBE00903809F495CF01240894970B1BF4D4F3A5
:102BCE000020F3CF792F1F932F933F934F93112410
:102BDE001127222733274427552790E2AE17BF0728
:102BEE008607410730F0AE1BBF0B860B410B0894D6
:102BFE0001C08894551F221F331F111CAA1FBB1F13
:102C0E00881F441F9A9551F7F901612D4F913F91FD
:102C1E002F911F91662332F0550FEE1FFF1F661F77
:102C2E007A9543F27FDE5F91089599239AF0772388
:102C3E0042F0971748F029F4AE17BF07860720F029
:102C4E0031F098948894089598940894089518945F
:102C5E00889408957723C2F7971798F3A9F7EA1780
:102C6E00FB07680788F399F3ECCF0024AF0DB01D76
:102C7E000895F195E195F0400895F0956095709561
:102C8E00E195FF4F6F4F7F4F0895FE2FFF0FFF0B04
:102C9E006F2F7F2F08956F2F660F660B762F089577
:102CAE00FA9FF02DEB9FF00DEA9FE02DF10D0895A8
:102CBE0058D0F6DF0EF4DDDF0895002498E0AA0F59
:102CCE00001C0E1A10F40E0E01C0A1609A95B9F7F1
:102CDE00EA2FA02D089539D0F0DF0EF4E195089576
:102CEE003F934F935F93002411244427552730E2DE
:102CFE00AA0FBB1F881F991F001C111C441F551FB4
:102D0E000E1A1F0A460B570B28F40E0E1F1E461FD7
:102D1E00571F01C0A1603A9559F7FD01BC01D001C2
:102D2E00CA015F914F913F910895E894A7FF02C0A9
:102D3E00A1956894E7FDE195C0DFEA2F0EF4E195C9
:102D4E000895CEDFFD01BC010895E894E7FF02C0AF
:102D5E00E1956894A7FF04C0A19500F8039400FACA
:102D6E000895E894F7FF02C084DF6894B7FF06C0A9
:102D7E00A095B095119600F8039400FA0895ED9180
:102D8E00FC9111970895ED91FD916D917C911397A2
:102D9E000895E881F9816A817B810895E883F9833A
:102DAE006A837B8308957A936A93FA93EA930895DC
:102DBE00182E862F612D192E972F712D1B2EBF2F9A
:102DCE00F12D1A2EAE2FE12D0895119602D0FE2F61
:102DDE001197E199FECFFF93FFB7F894AEBBBFBB3F
:102DEE00E09AEDB3FFBFFF91089507D01196EF93D0
:102DFE00EF2F03D0EF9111970895E19B02C0A89594
:102E0E00FCCF9FB7F894AEBBBFBBE09A8DB3E8176B
:102E1E0019F0EDBBE29AE19A9FBF0895309760409A
:102E2E00704008955A934A933A932A931A930A93A9
:102E3E0008955D814C813B812A8119810881089515
:00000001FF
